{
  "transactions": [
    {
      "hash": "0xb82def502f73de207dc60f61d1ae10843ce1f66ced766a88bef3b4c402ea6fdb",
      "transactionType": "CREATE",
      "contractName": "ContractB",
      "contractAddress": "0x002be253cb93c26ffd39f1c2e94c7a33ff7bee70",
      "function": null,
      "arguments": null,
      "transaction": {
        "from": "0xb76d87ddcaa7e7b39c1d0d1607d669f93fdd1897",
        "gas": "0x55b62",
        "value": "0x0",
        "input": "0x6080604052348015600e575f5ffd5b506103ee8061001c5f395ff3fe608060405234801561000f575f5ffd5b506004361061003f575f3560e01c80633fa4f2451461004357806340fc6a9614610061578063fe4b84df1461006b575b5f5ffd5b61004b610087565b6040516100589190610278565b60405180910390f35b61006961008c565b005b610085600480360381019061008091906102bf565b6100a6565b005b5f5481565b600a5f5f82825461009d9190610317565b92505081905550565b5f6100af610224565b90505f815f0160089054906101000a900460ff161590505f825f015f9054906101000a900467ffffffffffffffff1690505f5f8267ffffffffffffffff161480156100f75750825b90505f60018367ffffffffffffffff1614801561012a57505f3073ffffffffffffffffffffffffffffffffffffffff163b145b905081158015610138575080155b1561016f576040517ff92ee8a900000000000000000000000000000000000000000000000000000000815260040160405180910390fd5b6001855f015f6101000a81548167ffffffffffffffff021916908367ffffffffffffffff16021790555083156101bc576001855f0160086101000a81548160ff0219169083151502179055505b855f81905550831561021c575f855f0160086101000a81548160ff0219169083151502179055507fc7f505b2f371ae2175ee4913f4499e1f2633a7b5936321eed1cdaeb6115181d26001604051610213919061039f565b60405180910390a15b505050505050565b5f5f61022e610237565b90508091505090565b5f7ff0c57e16840df040f15088dc2f81fe391c3923bec73e23a9662efc9c229c6a005f1b905090565b5f819050919050565b61027281610260565b82525050565b5f60208201905061028b5f830184610269565b92915050565b5f5ffd5b61029e81610260565b81146102a8575f5ffd5b50565b5f813590506102b981610295565b92915050565b5f602082840312156102d4576102d3610291565b5b5f6102e1848285016102ab565b91505092915050565b7f4e487b71000000000000000000000000000000000000000000000000000000005f52601160045260245ffd5b5f61032182610260565b915061032c83610260565b9250828201905080821115610344576103436102ea565b5b92915050565b5f819050919050565b5f67ffffffffffffffff82169050919050565b5f819050919050565b5f61038961038461037f8461034a565b610366565b610353565b9050919050565b6103998161036f565b82525050565b5f6020820190506103b25f830184610390565b9291505056fea264697066735822122043ac33fb10c87ec4a403711bb04abbbdf351f8e4c8beda350a708f99e57c10db64736f6c63430008210033",
        "nonce": "0x89",
        "chainId": "0xaa36a7"
      },
      "additionalContracts": [],
      "isFixedGasLimit": false
    },
    {
      "hash": "0x4db4f34e459aaa0d5e7dff04d4500a5d054217bab53e56790f5257da6e92efc4",
      "transactionType": "CALL",
      "contractName": null,
      "contractAddress": "0x87ca22ed6ed6a0b9b613a50d124cbce1b6eb8305",
      "function": "upgradeAndCall(address,address,bytes)",
      "arguments": [
        "0x5ab556cDBfeA4a603a6d85f05C1207441321aA92",
        "0x002Be253CB93c26ffd39F1c2E94c7a33FF7Bee70",
        "0x40fc6a96"
      ],
      "transaction": {
        "from": "0xb76d87ddcaa7e7b39c1d0d1607d669f93fdd1897",
        "to": "0x87ca22ed6ed6a0b9b613a50d124cbce1b6eb8305",
        "gas": "0xf5e2",
        "value": "0x0",
        "input": "0x9623609d0000000000000000000000005ab556cdbfea4a603a6d85f05c1207441321aa92000000000000000000000000002be253cb93c26ffd39f1c2e94c7a33ff7bee700000000000000000000000000000000000000000000000000000000000000060000000000000000000000000000000000000000000000000000000000000000440fc6a9600000000000000000000000000000000000000000000000000000000",
        "nonce": "0x8a",
        "chainId": "0xaa36a7"
      },
      "additionalContracts": [],
      "isFixedGasLimit": false
    }
  ],
  "receipts": [
    {
      "status": "0x1",
      "cumulativeGasUsed": "0xb6e366",
      "logs": [],
      "logsBloom": "0x00000000000000000000000000000000000000000000000000000000000000000000000000000000000000000000000000000000000000000000000000000000000000000000000000000000000000000000000000000000000000000000000000000000000000000000000000000000000000000000000000000000000000000000000000000000000000000000000000000000000000000000000000000000000000000000000000000000000000000000000000000000000000000000000000000000000000000000000000000000000000000000000000000000000000000000000000000000000000000000000000000000000000000000000000000000",
      "type": "0x2",
      "transactionHash": "0x4db4f34e459aaa0d5e7dff04d4500a5d054217bab53e56790f5257da6e92efc4",
      "transactionIndex": "0x23",
      "blockHash": "0x0c8d5497bcc018e9325f98d4c2c51ef47912a007920caa4e63f7f623de1576de",
      "blockNumber": "0x97d928",
      "gasUsed": "0x41ee9",
      "effectiveGasPrice": "0x15ef3c",
      "from": "0xb76d87ddcaa7e7b39c1d0d1607d669f93fdd1897",
      "to": null,
      "contractAddress": "0x002be253cb93c26ffd39f1c2e94c7a33ff7bee70"
    },
    {
      "status": "0x1",
      "cumulativeGasUsed": "0xdf3e23",
      "logs": [
        {
          "address": "0x5ab556cdbfea4a603a6d85f05c1207441321aa92",
          "topics": [
            "0xbc7cd75a20ee27fd9adebab32041f755214dbc6bffa90cc0225b39da2e5c2d3b",
            "0x000000000000000000000000002be253cb93c26ffd39f1c2e94c7a33ff7bee70"
          ],
          "data": "0x",
          "blockHash": "0x0c8d5497bcc018e9325f98d4c2c51ef47912a007920caa4e63f7f623de1576de",
          "blockNumber": "0x97d928",
          "blockTimestamp": "0x6955017c",
          "transactionHash": "0xb82def502f73de207dc60f61d1ae10843ce1f66ced766a88bef3b4c402ea6fdb",
          "transactionIndex": "0x40",
          "logIndex": "0x92",
          "removed": false
        }
      ],
      "logsBloom": "0x00000000000000000000040000000000400000000008000000000000000000000000000000000000000000000000000000000000000000000000000000000400000000000000000000000000000002000000000000000000000000000000000000000000000000000000000000000000000000000080000000000000000000000000000000000000000000000000000000000000000100000000000000000000000000000000000000000000000000000000000000000000000000000000000000000030000000000000000000000000000000000000000000000000000000000000000000000000000000000000000000000000000000000000000000000000",
      "type": "0x2",
      "transactionHash": "0xb82def502f73de207dc60f61d1ae10843ce1f66ced766a88bef3b4c402ea6fdb",
      "transactionIndex": "0x40",
      "blockHash": "0x0c8d5497bcc018e9325f98d4c2c51ef47912a007920caa4e63f7f623de1576de",
      "blockNumber": "0x97d928",
      "gasUsed": "0xb204",
      "effectiveGasPrice": "0x15ef3c",
      "from": "0xb76d87ddcaa7e7b39c1d0d1607d669f93fdd1897",
      "to": "0x87ca22ed6ed6a0b9b613a50d124cbce1b6eb8305",
      "contractAddress": null
    }
  ],
  "libraries": [],
  "pending": [],
  "returns": {},
  "timestamp": 1767178655249,
  "chain": 11155111,
  "commit": null
}